:020000040000FA
:100000000C9463000C948B000C948B000C94EA030A
:100010000C94EA030C94EA030C948B000C948B0070
:100020000C948B000C948B000C948B000C948B0024
:100030000C948B000C948B000C948B000C948B0014
:100040000C94A0030C948B000C946E030C94480346
:100050000C948B000C948B000C948B000C948B00F4
:100060000C948B000C948B000000000024002700EF
:100070002A0000000008000201000003040700003D
:1000800000000000000000000000230026002900FE
:1000900000000000250028002B00040404040404D0
:1000A0000404020202020202030303030303010227
:1000B00004081020408001020408102001020408F6
:1000C00010206204EA0811241FBECFEFD8E0DEBF83
:1000D000CDBF22E0A4EBB1E001C01D92AE3EB2075D
:1000E000E1F711E0A0E0B1E0E8E3F3E102C0059040
:1000F0000D92A43BB107D9F710E0C2E6D0E004C0EE
:100100002197FE010E948909C136D107C9F70E94D3
:100110000D050C948F090C940000EEE1F2E09C01B7
:100120002C5E3F4FDC015D91CD014191541305C020
:10013000A217B307B9F781E0089580E00895AF9260
:10014000BF92CF92DF92EF92FF920F931F93CF93C4
:10015000DF936C017B018B01040F151FEB015E0126
:10016000AE18BF08C017D10759F06991D601ED91BB
:10017000FC910190F081E02DC6010995892B79F75A
:10018000C501DF91CF911F910F91FF90EF90DF900C
:10019000CF90BF90AF900895FC01538D448D252FD3
:1001A00030E0842F90E0821B930B541710F0CF9611
:1001B000089501970895FC01918D828D981761F043
:1001C000A28DAE0FBF2FB11D5D968C91928D9F5F5A
:1001D0009F73928F90E008958FEF9FEF0895FC0139
:1001E000918D828D981731F0828DE80FF11D858DEC
:1001F00090E008958FEF9FEF0895FC01918D228D7F
:10020000892F90E0805C9F4F821B91098F73992703
:10021000089582E392E00E94FD0021E0892B09F419
:1002200020E0822F089580E090E0892B29F00E9441
:10023000090181110C9400000895FC01A48DA80F00
:10024000B92FB11DA35ABF4F2C91848D90E0019618
:100250008F739927848FA689B7892C93A089B18938
:100260008C91837080648C93938D848D981306C0D9
:100270000288F389E02D80818F7D80830895EF923D
:10028000FF920F931F93CF93DF93EC0181E0888F50
:100290009B8D8C8D98131AC0E889F989808185FF20
:1002A00015C09FB7F894EE89FF896083E889F989C2
:1002B00080818370806480839FBF81E090E0DF91C4
:1002C000CF911F910F91FF90EF900895F62E0B8D17
:1002D00010E00F5F1F4F0F731127E02E8C8D8E11D2
:1002E0000CC00FB607FCFACFE889F989808185FF39
:1002F000F5CFCE010E941D01F1CFEB8DEC0FFD2F4C
:10030000F11DE35AFF4FF0829FB7F8940B8FEA89F3
:10031000FB8980818062CFCFCF93DF93EC01888D02
:100320008823B9F0AA89BB89E889F9898C9185FD70
:1003300003C0808186FD0DC00FB607FCF7CF8C91FE
:1003400085FFF2CF808185FFEDCFCE010E941D0198
:10035000E9CFDF91CF91089590E0FC01EE58FF4F77
:100360002491FC01E255FF4F3491FC01E656FF4F0A
:10037000E491EE23C9F0222339F0233001F1A8F4EF
:10038000213019F1223029F1F0E0EE0FFF1FE05784
:10039000FF4FA591B4918FB7F894EC91611126C0ED
:1003A00030953E233C938FBF08952730A9F0283025
:1003B000C9F0243049F7809180008F7D03C080917F
:1003C00080008F7780938000DFCF84B58F7784BDE6
:1003D000DBCF84B58F7DFBCF8091B0008F7780938A
:1003E000B000D2CF8091B0008F7DF9CF3E2BDACF15
:1003F000CF93DF9390E0FC01E255FF4F24918656A6
:100400009F4FFC0184918823D1F090E0880F991FC1
:10041000FC01E859FF4FA591B491FC01E057FF4F53
:10042000C591D49161110EC09FB7F8948C91E22FC1
:10043000E0958E238C932881E223E8839FBFDF9190
:10044000CF9108958FB7F894EC91E22BEC938FBF86
:10045000F6CF3FB7F8948091F9019091FA01A091FD
:10046000FB01B091FC0126B5A89B05C02F3F19F0F8
:100470000196A11DB11D3FBFBA2FA92F982F882724
:10048000BC01CD01620F711D811D911D42E0660FFF
:10049000771F881F991F4A95D1F708952FB7F894B1
:1004A0006091F5017091F6018091F7019091F8014A
:1004B0002FBF08952091FF013091000228173907BE
:1004C00071F49091FD018091FE01981741F0E09147
:1004D000FD01F0E0EC54FE4F808190E008958FEF35
:1004E0009FEF08950895EF92FF920F931F93CF937C
:1004F000DF93DC015C96ED90FC905D97E114F104D4
:1005000079F481E090E013969C938E93129790E09B
:1005100080E0DF91CF911F910F91FF90EF900895B0
:100520005196ED91FC91529750968C915097982F3F
:1005300090950FB75E962C915E97122F127021FD49
:100540006095F8942081112319F1282B2083E7016D
:100550002197F1F728E0462F50E0308160FF1AC064
:10056000382B3083E7012197F1F7BA01759567952C
:10057000215089F7112381F08081892380830FBF67
:100580005C968D919C910197F1F781E090E0C1CF4D
:100590002923DCCF3923E5CF9081892BEFCF209120
:1005A000FF01309100022817390771F48091FE0194
:1005B0002091FD0190E0805C9F4F821B910960E4D7
:1005C00070E00E941409089590E080E00895209161
:1005D000FF013091000228173907B9F49091FD010D
:1005E0008091FE01981789F0E091FD01F0E0EC5454
:1005F000FE4F80812091FD0130E02F5F3F4F2F7330
:1006000033272093FD0190E008958FEF9FEF089529
:1006100090E080E008950F931F93CF93DF93162F00
:10062000082FEC01699182E392E00E943F018C2F38
:10063000801B8117B8F3DF91CF911F910F9108951F
:10064000CF93DF93CDB7DEB72D970FB6F894DEBF0B
:100650000FBECDBFE1E0F2E0868391E097839DE09D
:10066000ECE3F1E0DE01119601900D929A95E1F72D
:10067000805D8A876DE0CE0101960E940B032D9666
:100680000FB6F894DEBF0FBECDBFDF91CF910895B6
:100690001F920F920FB60F9211242F933F934F93F7
:1006A0005F936F937F938F939F93AF93BF93EF93DA
:1006B000FF9382E392E00E941D01FF91EF91BF91B1
:1006C000AF919F918F917F916F915F914F913F91EA
:1006D0002F910F900FBE0F901F9018951F920F92A1
:1006E0000FB60F9211242F938F939F93EF93FF9345
:1006F000E0914202F09143028081E0914802F09142
:10070000490282FD1BC0908180914B028F5F8F73E5
:1007100020914C02821741F0E0914B02F0E0EE5C38
:10072000FD4F958F80934B02FF91EF919F918F9199
:100730002F910F900FBE0F901F9018958081F4CFCE
:100740001F920F920FB60F9211242F933F938F9306
:100750009F93AF93BF938091F5019091F601A09183
:10076000F701B091F8013091F40123E0230F2D3708
:1007700058F50196A11DB11D2093F4018093F50158
:100780009093F601A093F701B093F8018091F901DD
:100790009091FA01A091FB01B091FC010196A11D7D
:1007A000B11D8093F9019093FA01A093FB01B093DE
:1007B000FC01BF91AF919F918F913F912F910F902D
:1007C0000FBE0F901F90189526E8230F0296A11DCB
:1007D000B11DD2CF1F920F920FB60F9211242F93FB
:1007E0003F934F935F936F937F938F939F93AF93B9
:1007F000BF93EF93FF93E091FF01F09100023097D8
:1008000049F0A685B7858585968D91FF14C09C918A
:100810008923A1F4FF91EF91BF91AF919F918F91A7
:100820007F916F915F914F913F912F910F900FBEEC
:100830000F901F9018959C91892361F7A389B48923
:100840009C918589809589238C93868997890197C6
:10085000F1F7608D718DA685B785558538E020E06C
:10086000CB010197F1F7822F90E095958795282F7E
:100870004C91452309F02068315091F7868D81FD18
:1008800020958091FE0190E001968F739927309119
:10089000FD01381799F0A091FE01B0E0AC54BE4FB5
:1008A0002C938093FE01828D938D0197F1F7A3899C
:1008B000B4898C919589892B8C93ACCF868D81607E
:1008C000868FF1CF109235021092340288EE93E0B9
:1008D000A0E0B0E08093360290933702A0933802F4
:1008E000B093390224E931E030933302209332028D
:1008F00025EC30E030933F0220933E0224EC30E0C0
:10090000309341022093400220EC30E030934302C8
:100910002093420221EC30E03093450220934402C0
:1009200022EC30E0309347022093460226EC30E080
:10093000309349022093480210924B0210924C02CD
:1009400010924D0210924E021092D2021092D102D9
:100950008093D3029093D402A093D502B093D60291
:1009600086EA91E09093D0028093CF021092E60243
:100970001092E5021092E8021092E7021092EA0249
:100980001092E9021092EC021092EB026091ED02DB
:100990006E7F6D7F6093ED026695617081E06827E0
:1009A00083E00E94AC0161E083E00E94F801E1EB8A
:1009B000F0E0E491E093DF02EDE9F0E0E491F0E0B3
:1009C000EE0FFF1FE057FF4F859194919093E10246
:1009D0008093E00260E082E00E94F8018091ED02E5
:1009E00081FD04C061E082E00E94AC0182E080935E
:1009F000DB02E0EBF0E0E491E093DC02ECE9F0E014
:100A0000E491F0E0EE0FFF1FEA57FF4F85919491BC
:100A10009093DE028093DD020895CF93DF93CDB7EC
:100A2000DEB769970FB6F894DEBF0FBECDBF7894DE
:100A300084B5826084BD84B5816084BD85B58260E3
:100A400085BD85B5816085BD80916E008160809394
:100A50006E001092810080918100826080938100FD
:100A6000809181008160809381008091800081600D
:100A7000809380008091B10084608093B100809168
:100A8000B00081608093B00080917A008460809390
:100A90007A0080917A00826080937A0080917A0057
:100AA000816080937A0080917A00806880937A00D8
:100AB0001092C10080E19EE0A0E0B0E080931402BB
:100AC00090931502A0931602B09317028093100220
:100AD00090931102A0931202B0931302E09142028C
:100AE000F091430282E08083E0913E02F0913F0268
:100AF0001082E0914002F09141028FEC80831092CD
:100B00004A02E0914602F091470286E08083E0913C
:100B10004402F0914502808180618083E09144022B
:100B2000F0914502808188608083E0914402F091D9
:100B30004502808180688083E0914402F091450203
:100B400080818F7D80831092EA021092E9021092D8
:100B5000E8021092E7021092E6021092E5028DE997
:100B600091E09093EC028093EB029091DB0296313E
:100B700008F047C02DEB30E03093E6022093E50209
:100B80002BE931E03093E8022093E7022CE231E0D8
:100B90003093EA022093E9022091680084E09830C3
:100BA00048F031E09E3008F430E081E001C0880F69
:100BB0003A95EAF7822B809368002DE630E0983072
:100BC00050F02BE630E09E3030F02CE630E09631ED
:100BD00010F030E020E03093E3022093E202292F6E
:100BE00030E0983008F0ABC281E001C0880F9A95E0
:100BF000EAF78093E4028091EB029091EC02019776
:100C0000F1F78091E9029091EA02892B49F1E09194
:100C1000FF01F091000222E0EF3CF20709F130976A
:100C200039F0A389B4899C918589809589238C9317
:100C30008091ED028E7F8093ED021092FE01109262
:100C4000FD018FEC92E0909300028093FF01E09110
:100C5000E202F091E30280819091E402892B80838B
:100C600060E088E00E94AC0161E088E00E94F80149
:100C700090E080E00E9420030E9429024B015C0169
:100C800070EDC72E77E0D72EE12CF12C0E942902BF
:100C9000681979098A099B09683E734081059105A5
:100CA000A8F331E0C31AD108E108F10888EE880EF4
:100CB00083E0981EA11CB11CC114D104E104F1040D
:100CC00029F781E090E00E94200381E080930A02EE
:100CD00080930B0280930C026CE3462E512C612C06
:100CE000712C9E01265F3F4F3E8B2D8BCE010996C6
:100CF000988F8F8B11E030E1232E37E2332E48EEB0
:100D0000E42E43E0F42E54E6C52ED12C82E392E08B
:100D10000E94FD00892BE1F01093010282E392E032
:100D20000E94DB0090910202E92FF0E0E25EFD4FAD
:100D30008083943118F49F5F909302020E944E02C8
:100D4000609303027093040280930502909306025D
:100D50000091070280910102882309F445C00E9496
:100D60004E028090030290900402A0900502B09081
:100D70000602681979098A099B096B30710581059A
:100D8000910590F11092010210920202013021F5BA
:100D900088E291E00E948D00882309F4E1C18091EE
:100DA0000F02882309F4D8C110920F02809110021B
:100DB00090911102A0911202B0911302809314023B
:100DC00090931502A0931602B093170200930A02A3
:100DD00060E088E00E94AC01EEE1F2E0119222E3D3
:100DE00032E02E173F07D1F7013009F0E7C08091BC
:100DF00009028823E9F11092090281E1E9E4F1E0B6
:100E0000DE01119601900D928A95E1F7A0900D02F6
:100E1000B0900E02B5010B2C000C880B990B20E151
:100E200037E240E050E00E942809205D2987C50193
:100E3000B1010E941409B7010E941409605D6A871C
:100E4000C501B7010E941409B6010E941409605D32
:100E50006C87C501B6010E9414096AE070E00E9427
:100E60001409605D6D8761E1CE0101960E940B035C
:100E700080910B028823A1F010920B0281E1EAE538
:100E8000F1E0DE01119601900D928A95E1F781E380
:100E90008A8785E38C8761E1CE0101960E940B036E
:100EA00080910A02882309F44EC010920A0284E15C
:100EB000EBE6F1E0DE01119601900D928A95E1F7E3
:100EC0008090140290901502A0901602B090170224
:100ED000C501B40120E13EE040E050E00E94280955
:100EE000022FA30192010E942809298FC501B40194
:100EF000A30192010E942809362F802F64E60E94E8
:100F00000609892F2AE0622F0E940609805D8987E1
:100F1000802F622F0E940609905D9A87898D622F2B
:100F20000E940609805D8C87905D9D87832F622FCC
:100F30000E940609805D8F87905D988B64E1CE01E9
:100F400001960E940B0380910C028823B9F1109244
:100F50000C0281E1EFE7F1E0DE01119601900D92C4
:100F60008A95E1F720911C0230911D02C901B1015F
:100F70000E941409B7010E941409605D6987C901C4
:100F8000B7010E941409B6010E941409605D6A87C6
:100F9000C901B6010E9414096AE070E00E941409B8
:100FA000605D6C87C9016AE070E00E941409805D91
:100FB0008D8761E1CE0101960E940B038FEC92E0D8
:100FC0000E94CF02181619060CF04DC0CE010196F2
:100FD0005C010E944E026093D7027093D802809306
:100FE000D9029093DA028FEC92E00E94E70297FF19
:100FF000E7C00E944E022091D7023091D802409162
:10100000D9025091DA02621B730B840B950B20916D
:10101000D3023091D4024091D5025091D60262178A
:10102000730784079507F8F280E0FE0132969191EC
:10103000890F2F89388DE217F307C9F781959985B4
:10104000981311C08D8190E0982F88272E81820FF0
:10105000911D813137E2930734F490930E0280930F
:101060000D021093090280910F02882309F456C0E3
:101070000E944E028090180290901902A0901A02CD
:10108000B0901B02681979098A099B09683E734070
:1010900081059105D8F10E944E0260931802709369
:1010A000190280931A0290931B028091140290916E
:1010B0001502A0911602B09117020197A109B1097A
:1010C0008093140290931502A0931602B093170216
:1010D00010930A02B7FF1AC080911002909111027A
:1010E000A0911202B0911302809314029093150202
:1010F000A0931602B093170210920F0260E088E0EE
:101100000E94AC0180910F02882341F080910D0272
:1011100090910E0261E08C3D95400CF060E088E01B
:101120000E94AC0120E030E0232B09F4EFCD0E94B7
:101130000901882309F4DECD0E940000DBCD9E303A
:1011400040F42850310981E001C0880F2A95EAF760
:1011500050CD2E503109F7CF00930F0261E039CE08
:1011600084E191E00E948D008823B1F080911C02FF
:1011700090911D028C599F4F8131E7E29E072CF41C
:1011800090931D0280931C0204C030921D02209295
:101190001C0210930C0220CE80E091E00E948D0092
:1011A000882309F419CE80911C0290911D02845667
:1011B000910997FFE5CF10921D0210921C02E9CF12
:1011C000F50181935F012D893E892E173F0709F0B4
:1011D00000CF2ACF86EA91E09093D0028093CF028D
:1011E0008091FF01909100028F5C924071F4E09138
:1011F000E202F091E30290818091E40280958923DC
:101200008083109200021092FF01089587FB082E40
:10121000062687FD819567FD61950E9447090EF4BA
:10122000919507FC8195089597FB072E16F400947D
:1012300007D077FD09D00E94530907FC05D03EF482
:10124000909581959F4F0895709561957F4F089572
:10125000052E97FB1EF400940E943F0957FD07D00E
:101260000E94670907FC03D04EF40C943F09509587
:101270004095309521953F4F4F4F5F4F0895909582
:101280008095709561957F4F8F4F9F4F0895991B63
:1012900079E004C0991F961708F0961B881F7A956D
:1012A000C9F780950895AA1BBB1B51E107C0AA1F6F
:1012B000BB1FA617B70710F0A61BB70B881F991FF7
:1012C0005A95A9F780959095BC01CD010895A1E2AA
:1012D0001A2EAA1BBB1BFD010DC0AA1FBB1FEE1FB0
:1012E000FF1FA217B307E407F50720F0A21BB30BFB
:1012F000E40BF50B661F771F881F991F1A9469F777
:1013000060957095809590959B01AC01BD01CF01D2
:101310000895EE0FFF1F0590F491E02D099410E061
:10132000C2E6D0E004C0FE010E9489092196C336BE
:10133000D107C9F7F894FFCF65010801FFFFFF004F
:10134000000000000000000000000000650107012F
:10135000FFFFFF0000000000000000000000000090
:1013600065010301FFFFFF00000000000000000016
:101370000000000070616765207061676531FFFFE4
:10138000FF74302E7478743D2230302E303022FFBE
:10139000FFFF74312E7478743D2230302E303022AD
:1013A000FFFFFF74322E7478743D2230303A3030B3
:1013B0003A303022FFFFFF74332E7478743D2230B0
:1013C000302E303022FFFFFF000000003F019F0061
:1013D000CC008C01FD00DB00EF0000000000730278
:0C13E0009F0008037202CF02E7025A02CD
:107E0000112484B714BE81FFF0D085E080938100F7
:107E100082E08093C00088E18093C10086E0809377
:107E2000C20080E18093C4008EE0C9D0259A86E02C
:107E300020E33CEF91E0309385002093840096BBD3
:107E4000B09BFECF1D9AA8958150A9F7CC24DD24C4
:107E500088248394B5E0AB2EA1E19A2EF3E0BF2EE7
:107E6000A2D0813461F49FD0082FAFD0023811F036
:107E7000013811F484E001C083E08DD089C08234E0
:107E800011F484E103C0853419F485E0A6D080C0E4
:107E9000853579F488D0E82EFF2485D0082F10E0AE
:107EA000102F00270E291F29000F111F8ED06801E7
:107EB0006FC0863521F484E090D080E0DECF843638
:107EC00009F040C070D06FD0082F6DD080E0C81688
:107ED00080E7D80618F4F601B7BEE895C0E0D1E017
:107EE00062D089930C17E1F7F0E0CF16F0E7DF06D8
:107EF00018F0F601B7BEE89568D007B600FCFDCFD4
:107F0000A601A0E0B1E02C9130E011968C91119780
:107F100090E0982F8827822B932B1296FA010C0160
:107F200087BEE89511244E5F5F4FF1E0A038BF0790
:107F300051F7F601A7BEE89507B600FCFDCF97BE46
:107F4000E89526C08437B1F42ED02DD0F82E2BD052
:107F50003CD0F601EF2C8F010F5F1F4F84911BD097
:107F6000EA94F801C1F70894C11CD11CFA94CF0C13
:107F7000D11C0EC0853739F428D08EE10CD085E9AC
:107F80000AD08FE07ACF813511F488E018D01DD067
:107F900080E101D065CF982F8091C00085FFFCCF94
:107FA0009093C60008958091C00087FFFCCF809118
:107FB000C00084FD01C0A8958091C6000895E0E648
:107FC000F0E098E1908380830895EDDF803219F02E
:107FD00088E0F5DFFFCF84E1DECF1F93182FE3DFCA
:107FE0001150E9F7F2DF1F91089580E0E8DFEE27F6
:047FF000FF270994CA
:027FFE00040479
:00000001FF
